S01800006275696C642F6D6963617A2F6D61696E2E73726563E5
S11300000C9449000C9414050C941E050C942805BA
S11300100C9432050C943C050C9446050C947A0619
S11300200C9450050C9468000C9468000C94BE0D5C
S11300300C945C0F0C94DE040C94F4040C945A0598
S11300400C94CD040C94580D0C9468000C94680026
S11300500C9468000C9468000C9468000C9468007C
S11300600C94E9040C9468000C9468000C946800E7
S11300700C9468000C9468000C9468000C9468005C
S11300800C9468000C9468000C94680000081C1818
S1130090141011241FBECFEFD0E1DEBFCDBF11E09D
S11300A0A0E0B1E0E4E9F2E300E00BBF02C0079096
S11300B00D92AE30B107D9F712E0AEE0B1E001C065
S11300C01D92AA36B107E1F70E9463150C944919F1
S11300D00C9400008FB7F894992708958FBF089562
S11300E0FC0182819927582F442781819927482B25
S11300F0592BCA01892F992786958695837090700C
S11301008230910559F08330910559F0892B19F407
S113011020E030E008C02CE93FEF05C022E030E0E9
S113012002C028E030E0CA0184E0989F812D99271D
S113013011248230910559F08330910559F0892BAF
S113014019F480E090E008C08CE99FEF05C082E0DC
S113015090E002C088E090E0280F391F2A5F3F4FEB
S1130160CF01820F931F0895282F9FB7F894662319
S113017049F0E82FFF27E654FE4F8081882311F0D1
S113018021E006C0E22FFF27E654FE4F608320E003
S1130190892F99278FBF822F99270895E82F8FB72A
S11301A0F894282F332790E0FF27E654FE4F8081F0
S11301B0861709F491E02FBF892F99270895882382
S11301C011F06E9A08956E980895882311F06F9A2D
S11301D008956F98089580E00E94DF00BA9ABB9852
S11301E0B99AB89A6C9A80E00E94E5006B986A9874
S11301F081E00E94DF00709A8DB18C7F8DB90895E3
S11302000F931F93CF93DF93182F8FB7F894C82FB2
S1130210DD270C2F61E080E00E94B400882321F0E8
S1130220CFBF85E090E024C0809106018823A1F42B
S113023080911701823081F409C082E08093170114
S1130240109206010E94EB00B89AC0981093030123
S113025080E00FBF99270CC080911701882369F3B0
S11302608FB7F89499271092BA018FBF81E0F1CF2C
S1130270DF91CF911F910F910895282F9FB7F89484
S1130280E82FFF27E15BFE4F80818F3F81F4E091EF
S11302906802E21771F40BC02093590204C0FF27CF
S11302A0E15BFE4F20832093680220E007C025E035
S11302B005C0809159028F3F91F7EECF892F99277E
S11302C08FBF822F992708951F93182F81E00E94D2
S11302D0DF001FB9779BFECF8FB199271F91089537
S11302E08F929F92AF92BF92CF92DF92EF92FF9242
S11302F00F931F93CF93DF938FB7F8949927C090F0
S11303006202D09063028090B3019090B401C091D6
S11303108901D0918A012091200130912101EAE0E4
S1130320AE2EB12CAC0EBD1E2A153B0508F45901A6
S11303308FBF7401EC0EFD1E86010C0F1D1F14C02F
S1130340C114D10419F0F801808101C080E00E9439
S113035064018114910411F0F701808321960894BB
S1130360E11CF11C0F5F1F4FC5010197C817D90786
S113037038F381E00E94E5009FB7F894C114D104DA
S113038031F0CC0EDD1EF60180818FB901C01FB89B
S1130390D0938A01C0938901892F99278FBF80E068
S11303A090E0DF91CF911F910F91FF90EF90DF903C
S11303B0CF90BF90AF909F908F9008952FB7F894EF
S11303C0332750932101409320019093630280933B
S11303D062027093B4016093B30110928A01109287
S11303E089012FBF452B29F08FB10E9470019927F5
S11303F008958BE00E943D0180E090E008958FB75E
S1130400F89499271092BC018FBF0895895C91409C
S113041011F4109211010895EF920F931F93AE2DD2
S113042099E0899FF0011124E157FE4F40835183E5
S1130430628373830483158326833783A170808545
S11304408E7F8A2B8260808781E00E943D011F910C
S11304500F91EF9008957FB7F89462B7209123012C
S113046030912401409125015091260106B601FEE8
S11304700FC081B792B7280F311D411D511D2F5F49
S11304803F4F4F4F5F4F290F311D411D511D04C078
S1130490260F311D411D511D872F99278FBFCA017A
S11304A0B9010895AF92BF92CF92DF92EF92FF927B
S11304B00F931F93F82E5A016B010E942B02AB017C
S11304C0BC01F1E0EF2E960185018F2D0E940C02F4
S11304D01F910F91FF90EF90DF90CF90BF90AF905E
S11304E0089580E880934D011092680110925C0297
S11304F010925802109264010895CF93DF93FC0187
S113050015A6DC019E96ED011B821A82198280E8F1
S113051086A7DF91CF9108952F923F924F925F92D9
S11305206F927F928F929F92AF92BF92CF92DF92FF
S1130530EF92FF920F931F93CF93DF93CDB7DEB764
S113054029970FB6F894DEBF0FBECDBF6FB769838E
S1130550F89420906E0130906F014090700150909B
S113056071016624772488241EE4A12EB3E8BB2EEF
S1130570CC24DD24EE24FF2400E010E0222D332DD2
S1130580442D552D662D772D882D90E00E942B1734
S11305902A833B834C835D836E837F83888799871B
S11305A0822E932EA42EB52E2401350100E20E9442
S11305B02918A22EB32EC42ED52EA301920156952E
S11305C04795379527952A0D3B1D4C1D5D1D57FFFB
S11305D005C05F772F5F3F4F4F4F5F4F20936E01F2
S11305E030936F014093700150937101E9818E2F14
S11305F099278FBFCA01B90129960FB6F894DEBFB7
S11306000FBECDBFDF91CF911F910F91FF90EF905F
S1130610DF90CF90BF90AF909F908F907F906F901E
S11306205F904F903F902F9008958FB7F89460910A
S11306308D0170918E012CB53DB506B602FE04C045
S11306406F5F7F4F2CB53DB599278FBF88279927BA
S1130650CB017727662744275527622B732B842BDE
S1130660952B0895EF92FF920F931F930E94150309
S11306707B018C01209178013091790140917A01BC
S113068050917B018091730190917401A091750147
S1130690B0917601820F931FA41FB51FE216F306D3
S11306A00407150730F082179307A407B50758F01D
S11306B005C082179307A407B507E0F5E816F90605
S11306C00A071B07B8F59C01AD012E193F09400B21
S11306D0510B213060E8360760E0460760E05607BA
S11306E068F180E090E8A0E0B0E0E80EF91E0A1F8F
S11306F01B1FE0927801F092790100937A01109324
S11307007B0180E090E8AFEFBFEFE80EF91E0A1F0F
S11307101B1F2050304840405040209373013093B9
S11307207401409375015093760120E030E840E075
S113073050E014C020E030E040E050E080937801C5
S113074090937901A0937A01B0937B011092730185
S1130750109274011092750110927601A901B701EB
S11307602CB53DB5C9018E199F09039684179507C9
S113077020F0B9016D5F7F4F02C0640F751F6115D2
S1130780710511F461E070E0615070407BBD6ABD99
S113079080E186BF87B7806187BF1F910F91FF906B
S11307A0EF9008950F931F930FB7F8941127609358
S11307B078017093790180937A0190937B0120935F
S11307C073013093740140937501509376010E9434
S11307D032030FBF1F910F91089597B79F7D97BF65
S11307E090E296BF882319F08EB5806402C08EB55E
S11307F08F7B8EBD87B7806287BF80E090E00895CD
S1130800DF92EF92FF920F931F938FB7F894282FE4
S11308103327D22E91B782B746B7981711F041FF0C
S113082002C02FBF6AC0809188018823E1F10E9431
S11308302B02E090B601F090B7010091B80110913D
S1130840B901209135013091360140913701509121
S113085038016E197F09800B910B621773078407A7
S1130860950720F01092880171E01EC02E0D3F1DE7
S1130870401F511F8091230190912401A0912501D3
S1130880B0912601281B390B4A0B5B0B273E31051F
S11308904105510540F4822F223010F070E005C06C
S11308A070E082E002C070E086EE682F615000B60E
S11308B001FCFDCF82B7681709F46F5F2091230113
S11308C0309124014091250150912601DA01C9019A
S11308D00196A11DB11D860F911DA11DB11D821789
S11308E09307A407B50710F4622F609561BFDFBEBC
S11308F0772319F080E00E943D011F910F91FF9032
S1130900EF90DF900895AFB7F894BB27E1E0E09350
S113091088016093B6017093B7018093B8019093F6
S1130920B901209335013093360140933701509338
S11309303801AFBF0E9400040895AF92BF92CF92D6
S1130940DF92EF92FF920F931F93CF93DF93CDB774
S1130950DEB728970FB6F894DEBF0FBECDBF20E0F8
S113096070E0E0910001F091010132E14DE65CE4B8
S11309706FE4809101019E2F28960FB6F894DEBF94
S11309800FBECDBFDF91CF911F910F91FF90EF90DC
S1130990DF90CF90BF90AF9008951F920F920FB643
S11309A00F9211248F9383B783BF00B600FCFDCF51
S11309B08F910F900FBE0F901F90189578941F92EF
S11309C00F920FB60F9211240F900FBE0F901F902D
S11309D0189578941F920F920FB60F9211240F90CE
S11309E00FBE0F901F90189578941F920F920FB618
S11309F00F9211242F933F938F939F932FB7F894C3
S1130A00332780918D0190918E01019690938E01F0
S1130A1080938D012FBF9F918F913F912F910F90C4
S1130A200FBE0F901F9018951F920F920FB60F9242
S1130A3011240F900FBE0F901F9018951F920F92C4
S1130A400FB60F9211240F900FBE0F901F901895A0
S1130A501F920F920FB60F9211240F900FBE0F909A
S1130A601F9018951F920F920FB60F9211240F909A
S1130A700FBE0F901F9018951F920F920FB60F92F2
S1130A8011240F900FBE0F901F9018951F920F9274
S1130A900FB60F9211240F900FBE0F901F90189550
S1130AA01F920F920FB60F9211240F900FBE0F904A
S1130AB01F9018951F920F920FB60F9211242F9327
S1130AC03F934F935F936F937F938F939F93AF93D2
S1130AD0BF93EF93FF9383B783BF00B600FCFDCFB2
S1130AE081B799270196AA27BB272091230130912A
S1130AF024014091250150912601280F391F4A1FD6
S1130B005B1F2093230130932401409325015093CC
S1130B10260178940E940004FF91EF91BF91AF9158
S1130B209F918F917F916F915F914F913F912F9101
S1130B300F900FBE0F901F9018950F931F93182FAF
S1130B400FB7F89461E080E00E94B400882371F547
S1130B5010930301809106018823A9F58091170160
S1130B60823089F58AE00CC00E94EB008091170165
S1130B70882349F481E080931701109265018CE089
S1130B800E943D012AC0809177018F3F31F5E091A9
S1130B900501EE2311F11CC01092040104C0FF27CB
S1130BA0E958FE4F10821092050117C081E090E0D1
S1130BB002C0880F991F1A95E2F720911601282B7D
S1130BC0209316010AC0809117018823E1F6CCCF47
S1130BD0809104018F3F19F7DFCF802F99278FBFB2
S1130BE080E090E01F910F9108951F9383E00E948D
S1130BF000019927182F882319F083E00E949D058E
S1130C00812F99271F9108951F93CF93DF93182F56
S1130C108FB7F894C82FDD2760E080E00E94CE00F3
S1130C20882321F0CFBF80E090E005C0CFBF812FA3
S1130C300E9464019927DF91CF911F910895EF924B
S1130C40FF920F931F93CF93DF93182F7B01042FF1
S1130C508FB7F894C82FDD2760E080E00E94CE00B3
S1130C60882321F0CFBF80E090E014C0CFBF106490
S1130C70812F992790938101809380010E946401C0
S1130C80182F402F5527B70180E090E00E94DE0125
S1130C90812F9927DF91CF911F910F91FF90EF90B2
S1130CA00895C09860911E0170911F0141E08FE387
S1130CB00E941F06089582E090E090935F01809364
S1130CC05E0181E08093680120E030E080910301BF
S1130CD0843011F421E030E0232B29F484E00E94D5
S1130CE00001882319F40E945106089584E00E94AB
S1130CF09D0508951F920F920FB60F9211242F9302
S1130D003F934F935F936F937F938F939F93AF938F
S1130D10BF93EF93FF9380915E0190915F010197E0
S1130D2049F482E090E090935F0180935E010E9419
S1130D305B0605C0809164018F5F80936401FF911D
S1130D40EF91BF91AF919F918F917F916F915F913F
S1130D504F913F912F910F900FBE0F901F901895B8
S1130D601F9380911601882309F04BC01091030151
S1130D701F3F09F046C060E00E94CE00882309F4BA
S1130D8040C081E08093FE0180914E018823E1F10F
S1130D901092FE0185E090E045C0923069F5C09A5A
S1130DA08091040120E030E08F3F11F421E030E035
S1130DB0232BE9F4109306018F3F19F42FEF30E051
S1130DC00DC0282F3327F901E958FE4F8081809305
S1130DD004018F3F11F410930501108320936501E2
S1130DE081E0809317018CE00E943D0105C01093BF
S1130DF006011092170111C080911701882369F030
S1130E000FC081E090E00EC080910601909117011F
S1130E10882319F2923021F0EFCF80E00E94DF00A6
S1130E2080E090E01F9108951F93CF93DF939FB7C5
S1130E30F894C92FDD271C2F90910301981721F0F6
S1130E40CFBF81E090E03AC08FEF809303013091EF
S1130E5016013323F1F48FB7F89499271092BA014D
S1130E608FBF0E94B006CFBF11C02093030181E061
S1130E7090E002C0880F991F4A95E2F780953823C5
S1130E80309316018AE00E943D011FBF80E090E08C
S1130E9015C080E065E0E32FFF270E94AC18292FDE
S1130EA0492F5527CF01042E02C0959587950A94A2
S1130EB0E2F780FDDACF822F8F5FEFCFDF91CF9102
S1130EC01F9108951F93CF93DF938FB7F894C82F82
S1130ED0DD271C2F80915E0190915F01892B29F4FD
S1130EE084E00E941407CFBF1EC010926801809155
S1130EF06401882311F0B79904C00E9908C08823AF
S1130F0019F08150809364010E945B060BC081E05C
S1130F1090E090935F0180935E011092640184E0FD
S1130F200E9414071FBFDF91CF911F9108950E9463
S1130F307102C09AC09888E00E94040688E00E946A
S1130F400406C09A84E00E9414070E946207089570
S1130F50FF920F931F93CF93DF93F82E8B018FB7DC
S1130F60F894C82FDD2760E080E00E94CE0088233B
S1130F7021F0CFBF80E090E00CC0CFBF8F2D0E9446
S1130F806401812F99270E946401802F0E946401CB
S1130F909927DF91CF911F910F91FF9008951F938F
S1130FA01FB7F89480916301882319F460E070E01E
S1130FB009C060E080916102882309F461E081E066
S1130FC06827772780916B01882319F480E090E0EB
S1130FD00AC090E08091C001882309F491E081E087
S1130FE09827892F9927762F6627770F770F770F02
S1130FF0E4E0880F991FEA95E1F7826E9262682B0C
S1131000792B81E10E94A807812F99278FBF1F9117
S113101008958FB7F89499276091FD018FBF85E0FB
S1131020689FB0011124625D7E4F706488E10E9464
S1131030A8070895EF92FF921F93CF93DF93E09058
S11310406C01F0906D01F70182A59927182F882370
S113105009F41FE1C09880916201811749F0612F62
S113106077276F717070606E706885E10E94A807C1
S113107010936201F70110818FB7F894C82FDD2710
S113108060E080E00E94CE00882311F0CFBF12C040
S1131090CFBF8EE390E090938101809380018EE333
S11310A00E9464011150412F552760E070E0C70190
S11310B00E94DE01DF91CF911F91FF90EF90089580
S11310C00F931F93CF93DF93EC010FB7F89411277D
S11310D00E947000FC018FE380830FBF10925F02B7
S11310E010925E0261E082E00E94B400882319F04D
S11310F085E090E072C08091FF018F5F8093FF01D3
S113110081508B838FB7F894082F112762E081E018
S11311100E94CE00882329F40FBF0E94FF0181E0C2
S11311205BC08FB7F894992724E02093BB018FBF4D
S1131130D0938701C09386010FBFFE013196818150
S113114029819927982F88273327822B932B807204
S11311509C7C8983892F992781832981982F8827CB
S113116033272164822B932B8983892F99278183A9
S11311701CA618A619A619AA18AA1FA680E88EA745
S113118061E06093BE0140918601509187018FB761
S1131190F894282F332780911801909119018830F1
S11311A0910511F0019711F02FBF15C082E090E076
S11311B090931901809318016093690250936D0113
S11311C040936C01109222012FBF0E94F5058823E1
S11311D011F40E941A0880E09927DF91CF911F91A2
S11311E00F910895CF93DF93DA01422F2D3118F038
S11311F082E090E05EC0ED018B876E83872F992794
S11312008F832FB7F89433278091690190916A01F5
S11312102FBFFD018483892F992785832FB7F894E5
S1131220332780910701909108012FBF8887892F68
S1131230992789873196818129819927982F882731
S1131240332720643868822B932B8983892F99272D
S11312508183435F4C934D5080910A01882359F058
S113126010920A01642FCD010E9460089927282F4B
S11312708823A9F417C0842F99279093850180931C
S11312808401B0931D01A0931C018EE00E943D01D6
S113129080910A01882349F489E090E00AC08FEF25
S11312A080930A01822F992704C01092720180E072
S11312B090E0DF91CF91089510920201E0918B01AB
S11312C0F0918C01309721F080915D0280FF08C07D
S11312D081E080930201089583E00E943D01089516
S11312E020812D50332767817727762F66278681C3
S11312F09927682B792BAF0183850E94F2088823F4
S113130059F708951F93CF93DF93142F809102010F
S1131310882389F4C0918B01D0918C01C617D7071B
S113132051F410928C0110928B010E945C09612F80
S1131330CE010E940602DF91CF911F910895CF93B1
S1131340DF93FB01DB0116968683892F9927ED0134
S1131350898388E0838780918B0190918C01892B0C
S113136019F085E090E02BC070938C0160938B01A1
S1131370435F40834D5080910201882319F480E03B
S113138090E01DC08385ED0169817727762F66275C
S113139026813327622B732B10920201242FAF0175
S11313A00E94F2089927282F882339F081E080933E
S11313B0020110928C0110928B01822F9927DF91E8
S11313C0CF9108959C0180911101882379F4209391
S11313D0D5018091BF0141E069EC71E099270E9439
S11313E09F09882319F481E0809311010895AF9235
S11313F0BF92CF92DF92EF92FF920F931F93CF93FE
S1131400DF935B016C01C0E0D0E0EFE8F1E06085C0
S113141061FF7FC02081318142815381E480F58066
S113142006811781D601C501821B930BA40BB50B52
S11314308E159F05A007B10708F46BC060FF03C0B9
S11314406D7F608708C02E0D3F1D401F511F2083F4
S1131450318342835383CC2321F0C13009F05FC030
S113146025C0809111018823D9F4C5EDD1E0A9E309
S1131470B1E0FE018D91819381E0E93EF807D1F757
S1131480809100018C8B45E1BF01605270408FEF69
S11314909FEF0E949F09882319F481E08093110132
S11314A0809197018D7F8093970139C080911101BC
S11314B08823A9F50E948C026093D5010E948C02B6
S11314C06093D6010E948C02DC01CB016AE070E0DB
S11314D00E94B8188330910514F481E00AC0863064
S11314E0910514F482E005C0099714F483E001C067
S11314F084E08093D7018091BF0143E069EC71E0FF
S113150099270E949F09882351F481E08093110157
S113151006C021963996C430D10509F078CF81E010
S11315200E943D01DF91CF911F910F91FF90EF90A9
S1131530DF90CF90BF90AF900895CF92DF92EF925B
S1131540FF920F931F93CF93DF938C01F62E6A01C2
S1131550E22E8FB7F894C82FDD2760E080E00E9468
S1131560CE00882321F0CFBF80E090E01EC0CFBF23
S11315700F0D111D802F80680E946401F82E1695AE
S11315800795802F807C0E9464010E2D0AC0EE2DE9
S1131590FF27E01BF109EC0DFD1D80810E94640111
S11315A001500023A1F78F2D9927DF91CF911F912F
S11315B00F91FF90EF90DF90CF900895CF93DF933A
S11315C0CDB7DEB72C970FB6F894DEBF0FBECDBFF4
S11315D08FB7F894282FAE014F5F5F4FDA01E1EC2B
S11315E0F1E088E001900D928150E1F7809169016A
S11315F090916A018987892F99278A8780917C0134
S113160090917D018B87892F99278C872FBF2CE0A0
S113161060E080E691E00E949D0A2C960FB6F89453
S1131620DEBF0FBECDBFDF91CF9108951F93182F5A
S113163081E090E0909319018093180110924E017B
S11316400E94B0068FB7F8949927109312018FBFA8
S113165086E00E943D011F910895CF92DF92EF92A0
S1131660FF920F931F93CFB6F894DD240E948C024F
S1131670DC01CB0166E470E00E94B818EBE0EE2ECA
S1131680F12CE80EF91EF0926602E09265020E94C7
S1131690150300271127A80197010E94D203CFBE8A
S11316A01F910F91FF90EF90DF90CF9008951F93BB
S11316B0CF93DF938FB7F894C82FDD271C2F809129
S11316C01801909119010897C9F489E00E94040651
S11316D083E00E941407C09A81E090E0909319017E
S11316E0809318018FB7F894992723E0209312016F
S11316F08FBF86E00E943D01CFBF30C0C09880916B
S11317006902882311F085E001C084E00E94040688
S113171083FD09C080E00E94040683FF04C085E0C5
S113172090E020E003C083E090E021E09093190171
S113173080931801C09A1FBF222341F01092220106
S113174083E00E9414070E942D0B08C00E94150319
S113175020E431E040E050E00E94D203DF91CF91D9
S11317601F910895EF92FF920F931F93CF93DF93EE
S11317708B01809180019091810186FF40C18F7B14
S11317808F3309F08EC1C0911E01D0911F01588181
S11317905093600180915E0190915F0185309105C5
S11317A009F443C08630910509F48AC0029709F010
S11317B01FC185E090E090935F0180935E014091AA
S11317C04D01852F99270196242F33272817390790
S11317D04CF1B79906C00E9904C0451B4150409383
S11317E04D01409160014A32E8F44423A1F0BE0166
S11317F06F5F7F4F483018F047E050E007C086E045
S113180090E090935F0180935E01552780E090E023
S11318100E94DE0146C110926801C09A84E00E94D1
S11318201407E3C00E9497073CC186E090E09093C0
S11318305F0180935E0180916B01882309F439C0B4
S11318408091C0018823A9F5898185FF32C08F81E9
S11318504E812FB7F894332760917C0170917D01FC
S11318602FBF9927982F88275527842B952B8617C8
S1131870970759F08F812E819927982F882733272E
S1131880822B932B8F5F9F4FA1F4898187708130C6
S113189081F4C09AC0988AE00E940406C09AC09855
S11318A04091600147502896BE018FE30E941F06B5
S11318B0F8C040916001475055272896BE01A6CF35
S11318C0C09A80916401882339F484E00E9414074B
S11318D080916401882311F0B7990AC00E9B08C057
S11318E090915802992321F0809160018B3038F453
S11318F080911E0190911F010E947D023DC0913094
S113190001F5E0915C02FF27EE0FFF1FEE0FFF1FB2
S1131910EC5FFD4F2081318142815381E0911E01B2
S1131920F0911F0121ABBB27A52F942F832F80ABF0
S1131930CA01AA27BB2787A7252F33274427552762
S113194026A780915C029927019668E070E00E94C6
S1131950CC1880935C028091580281508093580285
S1131960882351F080911E0190911F010E947D02F5
S113197010925C021092580280916001FE01E80FFF
S1131980F11D808187FF31C0012B79F16981677076
S1131990E0911E01F0911F01623019F5A0916C01D4
S11319A0B0916D01109709F180911801909119017E
S11319B00797D9F4ED019B8183819817B1F487B718
S11319C08F7E87BF908181E08CA7E90FF11D829102
S11319D0319688A780818F7789A780E00E94160BB3
S11319E004C0613011F48DE02AC00E94620759C01E
S11319F010926801C09A84E00E94140752C08E338A
S1131A0009F04FC0C09A809118019091190108976C
S1131A10C9F4C09889E00E940406C09A83E00E9439
S1131A20140781E090E090931901809318018FB717
S1131A30F894992723E0209312018FBF86E00E9437
S1131A403D012FC080916902882349F484E090E02D
S1131A5090931901809318010E94570B22C083E0D0
S1131A600E94140783E090E0909319018093180179
S1131A700E948C02DC01CB0166E371E00E94B8187D
S1131A80FBE0EF2EF12CE80EF91EF0923401E09207
S1131A9033010E94150300271127A80197010E9412
S1131AA0D203DF91CF911F910F91FF90EF90089592
S1131AB01F920F920FB60F9211242F933F934F93BF
S1131AC05F936F937F938F939F93AF93BF93EF93A2
S1131AD0FF932FB1E091B301F091B401309739F045
S1131AE08091890190918A01E80FF91F20838091E8
S1131AF0890190918A01019690938A0180938901CA
S1131B0080E00E94E50040912001509121018091E4
S1131B10890190918A018417950718F40E94700135
S1131B201CC06091B3017091B401809162029091E4
S1131B3063021092B4011092B301109263021092E6
S1131B406202109221011092200110928A011092D7
S1131B5089012FB120E00E94B20BFF91EF91BF9158
S1131B60AF919F918F917F916F915F914F913F9131
S1131B702F910F900FBE0F901F90189578941F927D
S1131B800F920FB60F9211242F923F924F925F92B1
S1131B906F927F928F929F92AF92BF92CF92DF9279
S1131BA0EF92FF920F931F932F933F934F935F9363
S1131BB06F937F938F939F93AF93BF93CF93DF9351
S1131BC0EF93FF93C6B5D7B58FB7F894282E0E942C
S1131BD015039B012C1B3D0B442755272B013C016E
S1131BE0421A530A640A750A8091180190911901E6
S1131BF08530910521F0069709F0E0C0BFC086E06A
S1131C0090E0909319018093180131E0332E3092C3
S1131C10670110921A0180E00E94ED03E0916C01CB
S1131C20F0916D0141AABB27A72D962D852D80AB80
S1131C30C301AA27BB2787A7872D9927AA27BB27D4
S1131C4086A7E0916C01F0916D0185A5882309F4C4
S1131C5084C06081655077274F01860E971EF4017A
S1131C602081E1808281A3809927AA27BB27BA2FEC
S1131C70A92F982F8827332744275527522F4427E5
S1131C8033272227FF24002711278701FF24EE246E
S1131C902E293F29402B512BBB24CC24DD242A2977
S1131CA03B294C295D29822B932BA42BB52B84191A
S1131CB09509A609B7098383292F3A2F4B2F552756
S1131CC022839D014427552721838B2F9927AA27F7
S1131CD0BB278083C09824E0A40180E090E00E94A8
S1131CE09D0AC09AF4012081E1808281A380992712
S1131CF0AA27BB27BA2FA92F982F88273327442731
S1131D005527522F442733272227FF240027112742
S1131D108701FF24EE242E293F29402B512BBB247D
S1131D20CC24DD242A293B294C295D29822B932BA1
S1131D30A42BB52B840D951DA61DB71D8383292FB8
S1131D403A2F4B2F552722839D0144275527218362
S1131D508B2F9927AA27BB278083E0916C01F091F0
S1131D606D01818185FF02C030924E0183E00E94A3
S1131D70140787B78F7E87BF84997AC01092670152
S1131D8081E00E94ED03E0916C01F0916D0181818D
S1131D9085FF0FC087E090E09093190180931801AC
S1131DA00E94150320E031E040E050E00E94D2039D
S1131DB003C080E00E94160B849B5AC080911A01D4
S1131DC0882391F580916701882371F511E01093C0
S1131DD067010E94ED0380B320915802283098F4E3
S1131DE0E0915C02E20FFF27E770F070EE0FFF1F37
S1131DF0EE0FFF1FEC5FFD4F4082518262827382BF
S1131E002F5F2093580210931A01D0938301C0933B
S1131E10820184992DC0992764E0969587956A95E7
S1131E20E1F7182F117001C010E080916701813033
S1131E30F9F4109267010E94ED0310921A01112324
S1131E40B9F48091820190918301C81BD90B2A9720
S1131E5078F480915802882319F0815080935802B5
S1131E6080916C0190916D01009711F00E947D02A8
S1131E702FBEFF91EF91DF91CF91BF91AF919F91D1
S1131E808F917F916F915F914F913F912F911F910E
S1131E900F91FF90EF90DF90CF90BF90AF909F9005
S1131EA08F907F906F905F904F903F902F900F9006
S1131EB00FBE0F901F90189578941F920F920FB633
S1131EC00F9211241F932F933F934F935F936F931C
S1131ED07F938F939F93AF93BF93EF93FF9387B7B2
S1131EE08F7E87BF78941FB7F89480917301909187
S1131EF07401A0917501B09176010097A105B10517
S1131F0009F051C080911801909119018530910513
S1131F1061F18630910530F48330910549F00497DE
S1131F2081F51AC087309105F1F0089751F514C076
S1131F30869B0FC084E090E0909319018093180170
S1131F400E94150327E030E040E050E00E94D203F5
S1131F5018C00E942D0B15C00E94F505882389F432
S1131F600E94570B0EC080E00AC089E00E9404065C
S1131F7081E00E94ED0383E00E94140787E00E9441
S1131F80160B8091130190911401019771F482E072
S1131F9090E09093140180931301DE98DE9A80E020
S1131FA00E949D0502C00E943203812F99278FBF92
S1131FB0FF91EF91BF91AF919F918F917F916F911D
S1131FC05F914F913F912F911F910F900FBE0F90F2
S1131FD01F90189561E081E00E94B4008823E9F421
S1131FE08FB7F894282F332780911301909114010F
S1131FF0892B11F02FBF20C081E090E09093140151
S1132000809313012FBFDD9A0E94150324E130E071
S113201040E050E00E94D2030FC062E081E00E94E1
S1132020CE00882319F089E090E0089561E081E012
S11320300E94CE00882319F080E090E0089585E0A6
S113204090E00895AF92BF92CF92DF92EF92FF9209
S11320500F931F93CF93DF93CDB7DEB7A8970FB637
S1132060F894DEBF0FBECDBF873009F4A5C1883018
S113207090F4833009F4DBC0843030F4813009F407
S11320805BC08230F0F425C0853009F43EC186304F
S113209008F041C1E2C08B3009F4A6C28C3038F498
S11320A0893009F4ABC18A3008F0E1C1A0C18D3098
S11320B009F4D2C28D3008F4BBC28E3009F0D5C405
S11320C09CC480915D02882309F4CFC490E011E0A0
S11320D08BC080916101882361F5209100023091C9
S11320E001024091020250910302EFB7F894FF27D6
S11320F06091B6017091B7018091B8019091B901D6
S1132100E0903501F09036010091370110913801CB
S11321106E0D7F1D801F911FEFBF2093000230932F
S113212001024093020250930302109261010E9443
S113213083040E942B0243C00E942B025B016C01AA
S11321408FB7F8949927109288018FBFBFEFEB2EB9
S1132150BFEFFB2EBFEF0B2FBFE71B2F60E0EFE8B5
S1132160F1E0808581FF1CC080819181A281B381CF
S1132170A6019501281B390B4A0B5B0BDA01C90137
S11321802481358146815781281B390B4A0B5B0B0F
S11321902E153F05400751071CF479018A0161E0BF
S11321A0399631E0E33BF307E1F6662309F45DC4B5
S11321B01E141F04100611062CF0C601B5010E945E
S11321C0F70953C4E0920002F09201020093020264
S11321D01093030281E080936101A8019701C60175
S11321E0B5010E94830441C420915D02812F8223A2
S11321F0C1F0E92FFF27EE0FFF1FE557FE4F408187
S1132200518111821082812F8095282320935D02B1
S1132210992339F463E0CA010E940602110F91E088
S1132220E3CF9F5F983008F020C4110FDDCF1091E9
S11322300201E12FFF27EE0FFF1FE557FE4FE0805D
S1132240F180118210820E945C09112309F00DC4EF
S113225061E0C7010E94060208C40FB7F894112771
S113226081E00E94ED0361E0E62EF12CF092190169
S1132270E092180110921A0110924E01109262011C
S11322800FBF0FB7F89411270E947102F0925F01FB
S1132290E0925E011092680189B78F7B89BF80E468
S11322A088BF8AB780628ABF8AB78F7E8ABF89B7A0
S11322B0806489BF0FBF8FB7F894082F11278091CE
S11322C0130190911401049719F483E00E94040609
S11322D00FBF0FB7F8941127C09A80E00E9414072B
S11322E00FBF8FB7F894992722E02093BB018FBFCB
S11322F080910E018F5F80930E0140ED57E060E006
S113230070E080E00E945202B0C38FB7F89499271E
S11323101092BB0171C08FB7F8949927F090120105
S11323208FBF63E081E00E94CE00882359F10FB78C
S1132330F8941127109219011092180187B78F7E13
S113234087BF87B78F7D87BF83E00E941407C09A39
S11323500FBF0FB7F894112710925F0110925E011E
S11323600E947102C09A89B78F7B89BF0FBF1092F8
S1132370140110921301DE98DD98DE9A85E00E9424
S11323803D0107C08FB7F894992722E02093BB0141
S11323908FBF00918601109187010E94FF018091F7
S11323A05E0290915F02892B09F05FC38FEF8093E7
S11323B00A014F2DB8013FC38FB7F894282F332754
S11323C0122F80916702882309F581E080936702C8
S11323D08091130190911401049721F481E00E94EB
S11323E09D0503C088E00E943D011FBF3EC38FB717
S11323F0F8949927109267028FBF37C38FB7F89468
S1132400282F332780911501882311F02FBF2DC366
S11324102FBF80B3992756E0969587955A95E1F793
S1132420182F117090917E0180917F018917D9F046
S11324301917C9F484E090E0909314018093130178
S11324408FB7F894992721E0209315018FBF60E09E
S113245070E08DE10E94A8070E94DE0AC09AC0982D
S113246084E00E943D0110937F0189E06DC08FB725
S1132470F8949927109103018FBF123009F467C0B3
S1132480133030F4112359F0113009F0EEC248C072
S1132490133009F476C0143009F0E7C2A2C0C09822
S11324A08FB7F894082F112780911301909114018C
S11324B0029709F0BBC083E090E0909314018093ED
S11324C0130168E170E08DE10E94A80781E0809328
S11324D07E011092150180B3992746E09695879561
S11324E04A95E1F78170907080937F0189E00E94A2
S11324F03D0181E00E9404066FE772E08CE10E94D6
S1132500A8070E9409080E94CF0766E57AE287E1DE
S11325100E94A8076FEF70E885E10E94A80786C0B3
S1132520C09886E00E9404060E9409080E94CF0712
S11325300E94DE0AC09AC09883E00E940406C09AF2
S113254081E00E94140788E00E943D018EC2C09879
S11325508FB7F894082F112760E080E00E94CE0026
S1132560882311F00FBF0AC00FBF83E50E946401E6
S113257080E00E94640180E00E946401C09A82E0CD
S11325802DC08FB7F8949927209118018FBF24305C
S113259039F0283041F0223001F50E941A0865C252
S11325A00E94570B62C2C09889E00E940406C09A38
S11325B083E00E9414078FB7F894992721E030E054
S11325C030931901209318018FBF8FB7F89499277E
S11325D0109312018FBF86E0B7CF83E00E941407E7
S11325E044C20E94510641C20FB7F894112740918A
S11325F02001509121016091B3017091B401809147
S11326006202909163021092B4011092B30110928D
S11326106302109262021092210110922001109222
S11326208A011092890120E00E94B20B0FBF1DC2E3
S11326302FB7F8943327809165018093060182E0D7
S1132640809317012FBF80910601882309F00DC2E2
S1132650B89AC0988AE078CFA0911E01B0911F016A
S1132660FC909D012F0D311DF9018081881F882761
S1132670881FFD0183A7F90180818F77FD0181A760
S113268021503040F9018081FD0180A7A0911E01F5
S1132690B0911F01FD0132818FB7F89499272091E1
S11326A063018FBF222309F490C0832F9927969545
S11326B0879596958795837090708230910541F542
S11326C0878146812FB7F894332760917C017091FC
S11326D07D012FBF9927982F88275527842B952B69
S11326E08617970719F481E090E06CC0FD0187819B
S11326F0268140E050E09927982F88273327822BA2
S1132700932B8F5F9F4F11F441E050E0CA015AC0F0
S1132710039709F069C19E012F5F3F4F41EC51E0DF
S113272088E0FA010190AF01F90101929F01815003
S1132730C1F79E012F5D3F4FAE014F5F5F4F88E0B1
S1132740FA010190AF01F90101929F018150C1F793
S11327509E01275F3F4FAE014F5D5F4F88E0FA0156
S11327600190AF01F90101929F018150C1F79E01CF
S11327702F5E3F4FAE01475F5F4F88E0FA01019043
S1132780AF01F90101929F018150C1F79E01275EBB
S11327903F4FAE014F5E5F4F88E0FA010190AF01F9
S11327A0F90101929F018150C1F748E050E0BE0158
S11327B0675E7F4FCD0106960E943519892B09F07B
S11327C013C103C0882309F40FC1FCE0FF1508F00E
S11327D00BC1C0901E01D0901F01F6012281822FEF
S11327E0992716E0969587951A95E1F7039719F4BA
S11327F068E070E002C062E070E0822F992796954D
S113280087959695879583709070039719F488E05F
S113281090E002C082E090E026E030E0C20ED31ED9
S113282040E050E020E030E0F601E80FF91F8AEFC5
S11328309FEFC80ED91E05C08191480F511D2F5F0F
S11328403F4F26173707C4F3F60163818FEF809358
S113285060028FB7F894782F20E030E0E7E2F1E0EF
S1132860808191818417950731F48281861709F458
S1132870B4C0209360022F5F3F4F3396243031055C
S113288079F77FBF909160023FB7F8949F3F21F0A2
S113289080911B01891799F420911B01822F99279C
S11328A0FC01EE0FFF1FE80FF91FE95DFE4F518396
S11328B0408362832F5F237020931B010CC0892FF8
S11328C09927FC01EE0FFF1FE80FF91FE95DFE4F8A
S11328D0518340836283832F99278FBF0FB7F89466
S11328E01127C6010E947000FC0190810FBFF60100
S11328F083A5882309F474C09F3309F071C08781CC
S113290046812FB7F894332760910701709108012D
S11329102FBF9927982F88275527842B952B861707
S1132920970761F0878126819927982F8827332775
S1132930822B932B8F5F9F4F09F052C0F601838542
S1132940883009F04DC0AF2DAD50A601445F5F4FF4
S113295080910E01813029F5A53109F041C0A9E328
S1132960B1E0FA019601205E3F4F91918C91891755
S113297031F41196E217F30709F466C0F6CF80E04C
S113298090E00E94E2092CC00E942B02AB01BC0122
S1132990EE2400E117E220E030E081E00E940C0226
S11329A01FC08230E1F4A330D9F4809164028823FB
S11329B0B1F48091A9018D7F8093A901F6018485EA
S11329C080930F0185858093100140E65AEE60E004
S11329D070E082E00E94520203C07FBF01C0680120
S11329E0D0921F01C0921E018FB7F89499271092BC
S11329F068018FBF0E94620738C090917201809174
S1132A000A01981791F190930A019923C9F400914E
S1132A101C0110911D0160918401C8010E9460088D
S1132A20482F5527442309F18FEF80930A016091C1
S1132A301C0170911D01F80183850E94820915C053
S1132A408FEF80930A0111C0FA0184898093BF013A
S1132A5082E080930E0181E090E00E94E20980917F
S1132A606402882309F4BCCF8FCFA8960FB6F894DC
S1132A70DEBF0FBECDBFDF91CF911F910F91FF90AD
S1132A80EF90DF90CF90BF90AF900895809159025E
S1132A908F3FB1F0282F3327F901E15BFE4F80818E
S1132AA0809359028F3F11F4809368028FEF8083E3
S1132AB02F3F31F0822F0E94221081E090E0089590
S1132AC080E090E008951F93CF93DF93CDB7DEB7F6
S1132AD0E0970FB6F894DEBF0FBECDBF1FB7F894D2
S1132AE04FE050E06FEF70E08FE491E00E944219F4
S1132AF08FEF809359028093680281E08EBD88E055
S1132B0080BF83E083BF8CB59DB54AE72CB53DB546
S1132B102817390708F44150442311F0C901F6CFAE
S1132B2092B782B78917E9F32CB53DB592B782B74E
S1132B308917E9F38CB59DB5821B930B409625E06C
S1132B40969587952A95E1F790935B0280935A02B4
S1132B5013BE83B78EBD8EB580BF12BE1DBC1CBC18
S1132B608FEF86BF86B780937C0080B799278770E4
S1132B709070892BD1F7D29AD19AD09ADA9AD99AAD
S1132B80D89A15BA8FEF84BBD498DC981DBC1CBCB2
S1132B9087B7846087BF8EB5887F84608EBD0E94AE
S1132BA046158823E1F78FEF80936601E7E2F1E0B1
S1132BB08FEF9FEF918380831282339621E0E3337A
S1132BC0F207C1F70E948C026093FF0184E292E055
S1132BD090931F0180931E018E98B89A8C988FEF62
S1132BE0809377011092BA011092BB011092BC013C
S1132BF01092BD01B89AD69AD59A8FB7F8949927AE
S1132C0020910701309108018FBF30937D012093FB
S1132C107C010E949D0429A73AA74BA75CA76DA736
S1132C207EA78FA798ABDE019196FE01B99688E046
S1132C3001900D928150E1F7DE015196FE01B196AB
S1132C4088E001900D928150E1F7DE015996FE0172
S1132C50719688E001900D928150E1F7A1ECB1E00A
S1132C60FE01799688E001900D928150E1F7809100
S1132C700901992790936A01809369018FE18093F8
S1132C80B5018AE18093FD010E949D0429A73AA71A
S1132C904BA75CA76DA77EA78FA798ABDE01919683
S1132CA0FE01B99688E001900D928150E1F7DE01B2
S1132CB01196FE01B19688E001900D928150E1F7E2
S1132CC0DE011996FE01319688E001900D92815043
S1132CD0E1F7A1ECB1E0FE01399688E001900D9294
S1132CE08150E1F7A1ECB1E0FD0137969C91808120
S1132CF08D939083319781E0E43CF807B9F781E044
S1132D00809363011092610280936B011092C00161
S1132D1080B7886080BF8BE083BF86EE81BF87B7B2
S1132D20826087BF0E94000480910001909101019C
S1132D300196AA27BB2780936E0190936F01A093FD
S1132D407001B09371010E9446158823E1F7812F29
S1132D5099278FBF78942091000130910101C90116
S1132D60019796958795E9E3F1E0819391E0ED343D
S1132D70F907D9F7822F8170809364020E94EA0FC9
S1132D808FB7F894482F55274BC087B7992783707E
S1132D909070892B19F4E5E0F0E013C080B799270F
S1132DA087709070892BD1F781B792B7891B8C30CB
S1132DB030F082B7853F18F4E3E0F0E002C0E2E0CF
S1132DC0F0E087B7887BC1F480917D008B7FA1F40C
S1132DD06E9912C08AB190919A00892B887161F41E
S1132DE08091740082FD08C0379B03C081E090E0AD
S1132DF005C085E090E002C080E090E025B78E1722
S1132E0008F4E82FFF27E457FF4FE491237E206264
S1132E10E22BE5BF78948895F89485B78F7D85BFBC
S1132E20809159028F3F09F4B0CF282F3327F9013D
S1132E30E15BFE4F8081809359028F3F11F48093B0
S1132E4068028FEF80832F3F09F49FCF4FBF822FFB
S1132E500E94221095CFACE2B0E0E1E3F7E10C94DC
S1132E60FE18222E332E442E552E662E772E882EB3
S1132E70992EFE013196A8E01192AA95E9F72982CC
S1132E803A824B825C826D827E828F829886FE01BA
S1132E903996B8E01192BA95E9F7A986BA86CB8635
S1132EA0DC86ED86FE860F87188B89819A81AB813B
S1132EB0BC8189A79AA7ABA7BCA77C018D018FEF22
S1132EC09FEFA0E0B0E0E822F9220A231B2389A5A2
S1132ED09AA5ABA5BCA51D014424552489859A85D2
S1132EE0AB85BC858DA39EA3AFA3B8A75C016D0180
S1132EF08FEF9FEFA0E0B0E0A822B922CA22DB2224
S1132F008DA19EA1AFA1B8A53D0188249924C80133
S1132F10B701A60195010E94DF1869A37AA38BA3C8
S1132F209CA3C801B701A40193010E94DF187B018F
S1132F308C01C201B101A60195010E94DF185B0159
S1132F406C01C201B101A40193010E94DF183B018D
S1132F504C01EA0CFB1C0C1D1D1D89A19AA1ABA1FF
S1132F60BCA19D01442755272E0D3F1D401F511F15
S1132F702A153B054C055D0540F480E090E0A1E096
S1132F80B0E0680E791E8A1E9B1ECA01AA27BB27C1
S1132F90860D971DA81DB91D8D8F9E8FAF8FB8A369
S1132FA0A9013327222789A19AA1ABA1BCA1A070B2
S1132FB0B070280F391F4A1F5B1F298F3A8F4B8F20
S1132FC05C8FA98CBA8CCB8CDC8CED8CFE8C0F8D39
S1132FD018A1FE01719698E011929A95E9F7ED8A8D
S1132FE0FE8A0F8B188F2D813E814F8158856DA1EC
S1132FF07EA18FA198A50E94DF183B014C012D856D
S11330003E854F85588969A57AA58BA59CA50E9404
S1133010DF182D893E894F89588D260F371F481F89
S1133020591F260D371D481D591D2D8B3E8B4F8B67
S1133030588F6D887E888F88988C2A2D3B2D4C2D37
S11330405D2D662D772D882D992DE2E1AC960C949B
S11330501A19A0E1B0E0EFE2F8E10C94FE18222E78
S1133060332E442E552E662E772E882E992E00232D
S113307009F466C088E0FE01319611928A95E9F759
S113308029833A834B835C836D837E838F82988705
S1133090E0E2E01B1E16CCF52D813E814F81588560
S11330A0602F772767FD7095DA01C901062E04C0E9
S11330B0B695A795979587950A94D2F78D879E879D
S11330C0AF87B88B04C0220F331F441F551FEA95E6
S11330D0D2F789819A81AB81BC8104C0B695A7954A
S11330E0979587956A95D2F7282B392B4A2B5B2B1A
S11330F029873A874B875C8729843A844B845C848C
S11331006D847E848F8498881BC01D861E861F86CE
S1133110188A2E2F332727FD3095309521953F4F60
S11331208D819E81AF81B88504C0B695A79597958A
S113313087952A95D2F789879A87AB87BC87DCCF96
S1133140222D332D442D552D662D772D882D992D27
S1133150E2E160960C941A19991B79E004C0991F56
S1133160961708F0961B881F7A95C9F780950895DD
S1133170AA1BBB1B51E107C0AA1FBB1FA617B70799
S113318010F0A61BB70B881F991F5A95A9F78095B5
S11331909095BC01CD01089597FB092E07260AD00E
S11331A077FD04D0E5DF06D000201AF47095619510
S11331B07F4F0895F6F7909581959F4F0895629FEC
S11331C0D001739FF001829FE00DF11D649FE00D1B
S11331D0F11D929FF00D839FF00D749FF00D659F7C
S11331E0F00D9927729FB00DE11DF91F639FB00D7B
S11331F0E11DF91FBD01CF01112408952F923F92C3
S11332004F925F926F927F928F929F92AF92BF92F2
S1133210CF92DF92EF92FF920F931F93CF93DF939E
S1133220CDB7DEB7CA1BDB0B0FB6F894DEBF0FBEFB
S1133230CDBF09942A88398848885F846E847D8448
S11332408C849B84AA84B984C884DF80EE80FD804A
S11332500C811B81AA81B981CE0FD11D0FB6F894C0
S1133260DEBF0FBECDBFED010895FB01DC0104C03C
S11332708D910190801921F441505040C8F7881B6A
S1133280990B0895DC0101C06D9341505040E0F763
S10732900895FFCFCB
S1113294010001FFFFFFFF010022FFFFFF000A
S9030000FC
